:100000000C9447010C9478010C9478010C947801BD
:100010000C9478010C9478010C9478010C9478017C
:100020000C9478010C9478010C9478010C9478016C
:100030000C9478010C9478010C9478010C9478015C
:100040000C9478010C9478010C9478010C9478014C
:100050000C9478010C9478010C9478010C9474073A
:100060000C9478010C94D6040C94AC040C94780194
:100070000C9478010C9478010C9478010C9478011C
:100080000C9478010C9478010C9478010C9478010C
:100090000C9482040C9458040C9478010C9478010C
:1000A0000C9478010C9478010C9478010C947801EC
:1000B0000C9478010C9478010C9478010C947801DC
:1000C0000C9478010C9478010C9478010C947801CC
:1000D0000C9478010C9478010C9478010C947801BC
:1000E0000C9478011B051E050D0511051705550516
:1000F000220526052C05300534053A053E05420546
:10010000550548054C0550050C942C050C943A05F2
:100110000C9455050C94F3010C94D1010C947A01C4
:100120000C941B050C94C2010C9430050C947B02BA
:100130000C941E050C9442050C9417050C9426058E
:100140000C9434020C94E5010C943E050C942205A9
:100150000C9448050C9434050C944C050C945005F3
:100160000C94B60C0C940D050C94110500002100A4
:10017000240027002A002D00300033000101000078
:10018000040107010A0100002200250028002B00BD
:100190002E003100340002010000050108010B01AE
:1001A000000020002300260029002C002F00320030
:1001B0000001000003010601090105050505070509
:1001C00008080808020202020A0A080804040404D3
:1001D00001010101010101010303030303030303FF
:1001E000040707070C0C0C0C0C0C0C0C020202028E
:1001F00006060606060606060B0B0B0B0B0B0B0B77
:100200000102102020080810204010204080020128
:10021000020108040201010204081020408080400D
:10022000201008040201800402018040201008040C
:1002300002010804020101020408102040800102AA
:1002400004081020408000000A0B02090C0D0E0863
:10025000070304010000000000000000000000008F
:10026000000000000000000000000000000000008E
:10027000000012111000000000000000000000004B
:10028000000000000000000000000000B60C112477
:100290001FBECFEFD1E2DEBFCDBF00E00CBF14E048
:1002A000A0E0B2E0EEE5F1E200E00BBF02C0079093
:1002B0000D92A433B107D9F725E0A4E3B4E001C05F
:1002C0001D92AC3EB207E1F711E0C7E4D1E000E0D7
:1002D00006C021970109802FFE010E947A0EC634C4
:1002E000D10780E00807A9F70E9479080C94AD10A7
:1002F0000C940000CF92DF92EF92FF920F931F9326
:10030000CF93DF936C017A018B01C0E0D0E0CE1572
:10031000DF0589F0D8016D918D01D601ED91FC9139
:100320000190F081E02DC6011995892B11F47E0111
:1003300002C02196ECCFC701DF91CF911F910F91A1
:10034000FF90EF90DF90CF900895FC01A089B189D4
:100350008C91A689B78982FD0FC09C91818D8F5F9A
:100360008F73228D821749F0218DDF01A20FB11DFD
:100370005D969C93818F08958C910895089580E0F7
:1003800090E00895FC01538D448D252F30E0842F9B
:1003900090E0821B930B541710F0CF9608950197AD
:1003A0000895FC01918D828D981761F0828DDF0197
:1003B000A80FB11D5D968C91928D9F5F9F73928F58
:1003C00090E008958FEF9FEF0895FC01918D828D4D
:1003D000981731F0828DE80FF11D858D90E008951A
:1003E0008FEF9FEF0895FC01918D228D892F90E072
:1003F000805C9F4F821B91098F739927089588E62F
:1004000094E00E94F30121E0892B09F420E0822F7F
:10041000089585E095E00E94F30121E0892B09F41D
:1004200020E0822F0895FC01848DDF01A80FB11D0B
:10043000A35ABF4F2C91848D90E001968F7399271A
:10044000848FA689B7892C93A089B1898C91806407
:100450008C93938D848D981306C00288F389E02DC8
:1004600080818F7D80830895EF92FF920F931F9379
:10047000CF93DF93EC0181E0888F9B8D8C8D981357
:1004800005C0E889F989808185FD24C0F62E0B8D91
:1004900010E00F5F1F4F0F731127E02E8C8DE812B5
:1004A0000CC00FB607FCFACFE889F989808185FF77
:1004B000F5CFCE010E941302F1CF8B8DFE01E80F24
:1004C000F11DE35AFF4FF0820B8FEA89FB8980818F
:1004D000806207C0EE89FF896083E889F98980819D
:1004E0008064808381E090E0DF91CF911F910F9134
:1004F000FF90EF900895CF93DF93EC01888D8823D0
:10050000C9F0EA89FB89808185FD05C0A889B98980
:100510008C9186FD0FC00FB607FCF5CF808185FF5B
:10052000F2CFA889B9898C9185FFEDCFCE010E94C9
:100530001302E7CFDF91CF91089580E090E0892BFF
:1005400021F00E940902811121C080E090E0892BF6
:1005500021F00E94FF0181111CC080E090E0892BF6
:1005600041F080E090E0892B21F00E940000811191
:1005700013C080E090E0892BA1F080E090E0892B0F
:1005800081F00E94000081110AC008950E940000BD
:10059000DCCF0E940000E1CF0E940000EACF0C9463
:1005A00000000895DC01ED91FC910190F081E02DB7
:1005B0001994EF92FF920F931F93CF93DF93FC0157
:1005C0001182108213821282158214828617970775
:1005D00039F1DB010D911C9111970115110501F104
:1005E000EC011496ED90FC901597B7010E94BE07A0
:1005F000811109C0CE01DF91CF911F910F91FF9022
:10060000EF900C941308FD82EC82B80188819981E7
:10061000DF91CF911F910F91FF90EF900C94A61056
:10062000DF91CF911F910F91FF90EF900895EF927E
:10063000FF920F931F93CF93DF93EC0119821882DF
:100640001B821A821D821C826115710521F18B01AA
:10065000FB0101900020E9F731977F01E61AF70AC4
:10066000B7010E94BE07811109C0CE01DF91CF9171
:100670001F910F91FF90EF900C941308FD82EC8274
:10068000B80188819981DF91CF911F910F91FF90DF
:10069000EF900C94A610DF91CF911F910F91FF90D6
:1006A000EF900895909365048093640420E830E00F
:1006B0003093670420936604845E9D4F0C94F60586
:1006C000CF92DF92EF92FF920F931F93CF93DF931E
:1006D000CDB7DEB72C970FB6F894DEBF0FBECDBFF7
:1006E00084E292E00E94F60500EC15E07801F80142
:1006F000C080D18063E372E0CE0101960E941703AF
:10070000BE016F5F7F4FCE0107960E94D902B601EE
:10071000CE0107960E9425080E948406CE01079606
:100720000E947408CE0101960E94740861E0F801ED
:1007300080810E94C20668EC70E080E090E00E9438
:100740002E070E5F1F4F60E0F70180810E94C206F6
:10075000F5E00E3D1F0751F68BE392E00E94F6058F
:1007600002EA15E0F80180810E9499067C0164E6A6
:1007700070E080E090E00E942E07F801C190D190D7
:100780008F0164E572E0CE0101960E941703BE015D
:100790006F5F7F4FCE0107960E94D902B601CE014E
:1007A00007960E9425080E948406CE0107960E94A3
:1007B0007408CE0101960E947408C7010E946C065D
:1007C000F5E0003C1F0771F668E873E180E090E017
:1007D0000E942E072C960FB6F894DEBF0FBECDBF39
:1007E000DF91CF911F910F91FF90EF90DF90CF900D
:1007F00008950F931F930E94680700913A04109187
:100800003B0420913C0430913D04601B710B820B32
:10081000930B60933604709337048093380490935D
:10082000390428EE33E040E050E00E94170EB90191
:10083000330F880B990B97FF03C00E94450603C036
:100840004AE00E9404068FE592E00E94E405609170
:10085000360470913704809138049091390428EE61
:1008600033E040E050E00E94170E7093350460932F
:100870003404611571058105910519F481E692E052
:100880000DC06A307105810591051CF482E692E085
:1008900005C06436710524F483E692E00E94E40505
:1008A00080913404909135041F910F910C946C0643
:1008B0001F920F920FB60F9211240BB60F922F9327
:1008C0003F934F935F936F937F938F939F93AF93D8
:1008D000BF93EF93FF9388E694E00E941302FF9189
:1008E000EF91BF91AF919F918F917F916F915F91A8
:1008F0004F913F912F910F900BBE0F900FBE0F9015
:100900001F9018951F920F920FB60F9211240BB6DD
:100910000F922F933F934F935F936F937F938F9398
:100920009F93AF93BF93EF93FF9388E694E00E9469
:10093000A501FF91EF91BF91AF919F918F917F9111
:100940006F915F914F913F912F910F900BBE0F9040
:100950000FBE0F901F9018951F920F920FB60F9217
:1009600011240BB60F922F933F934F935F936F9386
:100970007F938F939F93AF93BF93EF93FF9385E004
:1009800095E00E941302FF91EF91BF91AF919F916B
:100990008F917F916F915F914F913F912F910F9028
:1009A0000BBE0F900FBE0F901F9018951F920F92C5
:1009B0000FB60F9211240BB60F922F933F934F93C4
:1009C0005F936F937F938F939F93AF93BF93EF93B7
:1009D000FF9385E095E00E94A501FF91EF91BF9103
:1009E000AF919F918F917F916F915F914F913F91C7
:1009F0002F910F900BBE0F900FBE0F901F90189568
:100A000090E0FC013197E231F10508F04EC08827F3
:100A1000EE58FF4F8F4F0C947A0E809180008F77A5
:100A200003C0809180008F7D809380000895809125
:100A30008000877FF9CF84B58F7702C084B58F7D22
:100A400084BD08958091B0008F7703C08091B0007D
:100A50008F7D8093B0000895809190008F7707C0BC
:100A6000809190008F7D03C080919000877F80935C
:100A7000900008958091A0008F7707C08091A0001A
:100A80008F7D03C08091A000877F8093A000089590
:100A9000809120018F7707C0809120018F7D03C056
:100AA00080912001877F8093200108953FB7F894BB
:100AB0008091E4059091E505A091E605B091E705E8
:100AC00026B5A89B05C02F3F19F00196A11DB11DA9
:100AD0003FBFBA2FA92F982F8827820F911DA11DE4
:100AE000B11DBC01CD0142E0660F771F881F991F21
:100AF0004A95D1F708950E949810CF92DF92EF9215
:100B0000FF920F931F93CF93DF93EC016A017B0158
:100B1000E889F98982E080834115514E61057105AC
:100B2000B1F060E079E08DE390E0A70196010E94CA
:100B3000490E89019A01015011092109310936959F
:100B4000279517950795980101151041A8F0E88998
:100B5000F989108260E874E88EE190E0A7019601BF
:100B60000E94490EDA01C9010197A109B109B695A0
:100B7000A795979587959C01EC85FD853083EE853B
:100B8000FF852083188EEC89FD8986E08083EA89C1
:100B9000FB89808180618083EA89FB89808188600C
:100BA0008083EA89FB89808180688083EA89FB8968
:100BB00080818F7D8083DF91CF911F910F91FF9076
:100BC000EF90DF90CF900895009769F0FC010190BD
:100BD0000020E9F73197AF01481B590BBC0185E0B4
:100BE00095E00C947A0180E090E00895CF93DF9334
:100BF0000E94E405EC0187E193E00E94E4058C0F7C
:100C00009D1FDF91CF9108958F929F92AF92BF92D7
:100C10000F931F93CF93DF93CDB7DEB7A1970FB696
:100C2000F894DEBF0FBECDBF19A2423008F44AE0EF
:100C30008E010F5D1F4F842E912CA12CB12CA5018C
:100C400094010E94490EE62FB901CA010150110911
:100C5000EA3014F4E05D01C0E95CD801EC93232B89
:100C6000242B252B61F7C8010E94E405A1960FB63D
:100C7000F894DEBF0FBECDBFDF91CF911F910F91D2
:100C8000BF90AF909F908F900895CF92DF92EF9298
:100C9000FF92CF93DF936B017C01E0910505F0910A
:100CA00006050190F081E02D6DE285E095E0199553
:100CB000EC0166277727CB016C197D098E099F0906
:100CC0004AE00E9404068C0F9D1FDF91CF91FF9098
:100CD000EF90DF90CF900895CF93DF93BC01990FF1
:100CE000880B990B97FF03C00E94450603C04AE09A
:100CF0000E940406EC0187E193E00E94E4058C0F5A
:100D00009D1FDF91CF910895CF93DF93FC01448124
:100D100055816081718185E095E00E947A01EC0146
:100D200087E193E00E94E4058C0F9D1FDF91CF9136
:100D30000895CF93DF93282F30E0F901EA5BFD4F50
:100D40008491F901E050FE4FD491F901E654FE4F31
:100D5000C491CC2391F081110E940005EC2FF0E0AA
:100D6000EE0FFF1FE056FE4FA591B491EC91ED23DD
:100D700081E090E021F480E002C080E090E0DF912B
:100D8000CF9108951F93CF93DF93282F30E0F9017F
:100D9000EA5BFD4F8491F901E050FE4FD491F901D7
:100DA000E654FE4FC491CC23C9F0162F81110E9446
:100DB0000005EC2FF0E0EE0FFF1FEA57FE4FA59164
:100DC000B4918FB7F894111105C09C91ED2FE09567
:100DD000E92302C0EC91ED2BEC938FBFDF91CF9113
:100DE0001F910895CF93DF9390E0FC01E050FE4FF8
:100DF0002491FC01E654FE4F8491882361F190E038
:100E0000880F991FFC01E459FE4FC591D491FC0154
:100E1000EA57FE4FA591B491611109C09FB7F894AC
:100E20008881209582238883EC912E230BC0623029
:100E300061F49FB7F8943881822F8095832388834B
:100E4000EC912E2B2C939FBF06C08FB7F894E881AE
:100E50002E2B28838FBFDF91CF9108958F929F9281
:100E6000AF92BF92CF92DF92EF92FF926B017C0123
:100E70000E9456054B015C01C114D104E104F10448
:100E8000F1F00E945605DC01CB0188199909AA09E5
:100E9000BB09883E9340A105B10570F321E0C21A59
:100EA000D108E108F10888EE880E83E0981EA11CA5
:100EB000B11CC114D104E104F10419F7DDCFFF9096
:100EC000EF90DF90CF90BF90AF909F908F9008955C
:100ED0002FB7F8946091E0057091E1058091E205EB
:100EE0009091E3052FBF08951F920F920FB60F92B6
:100EF00011242F933F938F939F93AF93BF93809130
:100F0000E0059091E105A091E205B091E3053091F3
:100F1000DF0523E0230F2D3720F40196A11DB11D1D
:100F200005C026E8230F0296A11DB11D2093DF0501
:100F30008093E0059093E105A093E205B093E3056B
:100F40008091E4059091E505A091E605B091E70553
:100F50000196A11DB11D8093E4059093E505A09332
:100F6000E605B093E705BF91AF919F918F913F91B7
:100F70002F910F900FBE0F901F9018950F931F93F6
:100F8000CF93DF93EC0188819981009729F02A8122
:100F90003B812617370788F48B016F5F7F4F0E94D4
:100FA000AF0F009761F0998388831B830A832C819C
:100FB0003D81232B11F4FC01108281E001C080E00F
:100FC000DF91CF911F910F910895EF92FF920F93B0
:100FD0001F93CF93DF93FC01248135816115710547
:100FE00011F480E019C041155105A9F07B01EC0115
:100FF0008A01020F131FB8010E94BE07882389F3DC
:10100000288139818C819D81B701820F931F0E94B5
:10101000A6101D830C8381E0DF91CF911F910F916A
:10102000FF90EF900895CF93DF93EC018881998131
:10103000009711F00E94170F198218821D821C82DE
:101040001B821A82DF91CF910895EF92FF920F9346
:101050001F93CF93DF93CDB7DEB728970FB6F894E1
:10106000DEBF0FBECDBF7C01CB014AE08E010F5F1A
:101070001F4FB8010E94E20DF80101900020E9F72E
:101080003197AF01401B510BB801C7010E94E50722
:10109000811103C0C7010E941308C70128960FB62B
:1010A000F894DEBF0FBECDBFDF91CF911F910F919E
:1010B000FF90EF900895CF93DF93EC0161157105D8
:1010C00061F0FB0101900020E9F73197AF01461B69
:1010D000570B0E94E507811103C0CE010E9413083F
:1010E000CE01DF91CF910895FC01808191810C9414
:1010F000170FCF93DF93CDB7DEB76B970FB6F8948A
:10110000DEBF0FBECDBF789484B5826084BD84B548
:10111000816084BD85B5826085BD85B5816085BDF2
:1011200080916E00816080936E00109281008091AA
:101130008100826080938100809181008160809332
:101140008100809180008160809380008091B10057
:1011500084608093B1008091B00081608093B00082
:1011600080919100826080939100809191008160D4
:101170008093910080919000816080939000809195
:10118000A10082608093A1008091A1008160809382
:10119000A1008091A00081608093A0008091210136
:1011A00082608093210180912101816080932101DF
:1011B0008091200181608093200180917A00846079
:1011C00080937A0080917A00826080937A00809187
:1011D0007A00816080937A0080917A0080688093A1
:1011E0007A001092C10040E855E260E070E085E0CE
:1011F00095E00E947D0540E855E260E070E088E6F9
:1012000094E00E947D0500EC15E0F80180810E5FFE
:101210001F4F61E00E94F206F5E00E3D1F07A9F79F
:10122000F2EAEF2EF5E0FF2E8701F80180810E5FD4
:101230001F4F60E00E94F206F5E0003C1F07A9F78F
:1012400060E080E10E94F20660E08CE00E94F2061D
:101250008CE00E9499066C01019719F0E2E0CE2E15
:10126000D12CD0926304C092620465E672E0CE0194
:1012700041960E9417038E01055F1F4FBE016F5EEE
:101280007F4FC8010E94D902B601C8010E942508FB
:10129000BC01CE0101960E94D902CE0101960E94A6
:1012A0008406CE0101960E947408C8010E94740849
:1012B000CE0141960E94740880916204909163046B
:1012C0008130910509F047C00E9468074B015C011D
:1012D0006DE672E0CE0101960E941703CE010196E1
:1012E0000E948406CE0101960E9474080E9468073D
:1012F000DC01CB0188199909AA09BB098031974201
:10130000A105B10528F564EF71E080E090E00E944E
:101310002E0763E570E088E694E00E94D20288E63A
:1013200094E00E94F3011816190604F788E694E089
:101330000E94D101D82E682F880F770B85E095E0A9
:101340000E94D20231E4D312EACF61E972E049C0CF
:1013500086E190E055C0029709F055C00E946807E9
:101360004B015C0168EA72E0CE0101960E9417030E
:10137000CE0101960E948406CE0101960E94740857
:101380000E946807DC01CB0188199909AA09BB09E9
:1013900080319742A105B10588F564EF71E080E0E6
:1013A00090E00E942E0788E694E00E94F301181650
:1013B000190634F788E694E00E94D101D82E682FF0
:1013C000880F770B85E095E00E94D20253E5D51295
:1013D000EACF61E470E088E694E00E94D2026DEC0E
:1013E00072E0CE0101960E941703CE0101960E9481
:1013F0008406CE0101960E94740878C287E190E0CD
:101400000E94520373C285E190E002C088E190E03F
:101410000E94520329C18AE193E00E94F60583EEFF
:1014200092E00E94F60582EF92E00E94F6058BEFB3
:1014300092E00E94F60584E093E00E94E40585E0D6
:1014400095E00E94F30118161906CCF785E095E0A7
:101450000E94D101282FE0910505F0910605019029
:10146000F081E02D682F85E095E02B8F199587E1BD
:1014700093E00E94E4052B8D213309F03FC22093B5
:10148000DE0582E090E090936704809366046CE44C
:1014900070E088E694E00E94D2028091DE058133FC
:1014A00009F0D9C08BE293E00E94F60564E473E092
:1014B000CE0101960E941703CE0101960E94840678
:1014C000CE0101960E94740872E4A72E74E0B72E34
:1014D000C12CD12CF70180810E949906019709F057
:1014E00028C2F70180819181F501918380838091E9
:1014F00040049091410401969093410480934004EC
:10150000FFEFCF1ADF0A22E0E20EF11C32E0A30E59
:10151000B11C4FE0C416D104E9F6E0904004F0900D
:1015200041046CE773E0C8010E941703B801CE01C3
:1015300001960E94D902B701CE0101960E942508AA
:1015400063E873E00E945B086FE070E00E9425088A
:101550000E948406CE0101960E947408C8010E9470
:10156000740880914004909141040A9724F489E919
:1015700093E00E94F6058091DE05813309F046CFA5
:1015800084EC93E00E94E40585E095E00E94F3017D
:1015900018161906CCF785E095E00E94D10181E08C
:1015A00090E090933F0480933E0484E090E0909319
:1015B00067048093660488EF93E00E94F60568EE66
:1015C00073E080E090E00E942E0785E090E00E94AA
:1015D0006C0668EE73E080E090E00E942E0784E0E5
:1015E00090E00E946C0668EE73E080E090E00E945C
:1015F0002E0783E090E00E946C0668EE73E080E0C6
:1016000090E00E942E0782E090E00E946C0668EE57
:1016100073E080E090E00E942E0781E090E00E945D
:101620006C0668EE73E080E090E00E942E0783E095
:1016300094E00E94F6050E94680760933A04709354
:101640003B0480933C0490933D0488E090E09093A9
:101650006704809366048091DE05833329F40E9439
:101660006003E0E0F0E0199540E1A42EB12C5EE0CB
:10167000452E512C612C712C62E0262E312C80914C
:101680006604909167048038910511F5E090640438
:10169000F090650467E074E0C8010E941703B80188
:1016A000CE0101960E94D902B701CE0101960E9497
:1016B00025080E948406CE0101960E947408C80184
:1016C0000E94740868E873E180E090E00E942E07B1
:1016D0008091660490916704089709F040C00E94C9
:1016E000F90332E4E32E34E0F32EC12CD12C8091A7
:1016F000400490914104C816D90644F5F701908042
:101700008180F2E0EF0EF11C892D0E949906892B51
:10171000C9F49092600480926104B0926704A09230
:10172000660420EC822E25E0922EF4018081F2E006
:101730008F0E911C60E00E94C2062EED821625E0FD
:10174000920699F73FEFC31AD30AD1CF80E10E94E6
:101750009906019721F4B0926704A09266048091E3
:10176000660490916704019709F050C08091DE05EE
:10177000823309F04BC06BE174E0CE0101960E9408
:101780001703CE0101960E948406CE0101960E94A5
:101790007408AE014F5F5F4F7A016A010E94D50D58
:1017A000A30192010E94170E9B01AC012F5F3F4FD6
:1017B0004F4F5F4F2F8B388F498F5A8FF901EE0FA4
:1017C000FF1FE054FA4F61E080810E94C206F601DB
:1017D0002F89388D219331936F01E017F107F1F6CE
:1017E00064EF71E080E090E00E942E07F7018081B5
:1017F000F2E0EF0EF11C60E00E94C206E016F10676
:10180000A9F70FB6F894DEBF0FBECDBF8091660476
:1018100090916704409729F461E0809160040E94F0
:10182000C2068091620490916304029709F05BC044
:1018300083E3E82E88E694E00E94F3011816190667
:101840000CF051C088E694E00E94D101F82E67E2C6
:1018500074E0C8010E941703B801CE0101960E94EE
:10186000D902F98A1A8A41E050E0BE016F5E7F4FCB
:10187000CE0101960E94E507811104C0CE010196B8
:101880000E941308CE0101960E948406CE010196A3
:101890000E947408C8010E94740825E4F216C9F079
:1018A0003CE4F31671F044E4F412C4CFE092DE0598
:1018B00081E090E090936704809366040E94600347
:1018C000B9CF51E35093DE0530926704209266044D
:1018D000B1CF82E38093DE0581E090E090936704CE
:1018E00080936604A7CF0E949D02C9CE80916204B6
:1018F00090916304029709F092CDB6CE223359F449
:101900002093DE0581E090E0909367048093660465
:1019100065E470E0BECD233309F07DCD2093DE0574
:1019200081E090E0909367048093660464E470E043
:10193000B0CD62E673E0C8010E941703B801CE0182
:1019400001960E94D902B601CE0101960E94250897
:101950006CE673E00E945B080E948406CE0101964B
:101960000E947408C8010E947408CACDE8E6F4E039
:101970001382128248EE53E060E070E044835583A6
:10198000668377838EE092E0918380832DEC30E054
:10199000358724872CEC30E03787268728EC30E029
:1019A000318B208B29EC30E0338B228B2AEC30E01A
:1019B000358B248B2EEC30E0378B268B118E128EDC
:1019C000138E148EE5E0F5E0138212824483558372
:1019D000668377839183808385EC90E09587848705
:1019E00084EC90E09787868780EC90E0918B808BE9
:1019F00081EC90E0938B828B82EC90E0958B848BD2
:101A000086EC90E0978B868B118E128E138E148E3F
:101A100080E38093DE05E0ECF5E086E190E09183E1
:101A2000808388E190E0938382838AE190E09583CC
:101A300084838CE190E0978386838EE190E09187A8
:101A4000808780E290E09387828782E290E09587AA
:101A5000848784E290E09787868786E290E0918B86
:101A6000808B88E290E0938B828B8AE290E0958B6A
:101A7000848B8CE290E0978B868B8EE290E0918F46
:101A8000808F80E390E0938F828F82E390E0958F48
:101A9000848FE2EAF5E087E190E09183808389E139
:101AA00090E0938382838BE190E0958384838DE142
:101AB00090E0978386838FE190E09187808781E231
:101AC00090E09387828783E290E09587848785E220
:101AD00090E09787868787E290E0918B808B89E200
:101AE00090E0938B828B8BE290E0958B848B8DE2E0
:101AF00090E0978B868B8FE290E0918F808F81E3CF
:101B000090E0938F828F83E390E0958F848F089588
:101B10008F929F92AF92BF92CF92DF92EF92FF92FD
:101B2000CF93DF93EC01688179818A819B81611574
:101B300071058105910521F464E279ED8BE597E06B
:101B40002DE133EF41E050E00E94170E49015A01A8
:101B50009B01AC01A7EAB1E40E94360E6B017C0147
:101B6000ACEEB4EFA50194010E94440EDC01CB0160
:101B70008C0D9D1DAE1DBF1DB7FF03C00197A109B0
:101B8000B04888839983AA83BB83BC01CD019F772A
:101B9000DF91CF91FF90EF90DF90CF90BF90AF900B
:101BA0009F908F9008950C94880D80E092E00C94A3
:101BB000880D60930002709301028093020290935B
:101BC00003020895BB274A3031F4992322F4BDE281
:101BD000909581959F4F0C94EE0DBB27FB015527E7
:101BE000AA27880F991FAA1FA41710F0A41B83957A
:101BF0005051B9F7A05DAA3308F0A95DA1930097F1
:101C000079F7B111B1931192CB010C94070EDC015D
:101C1000FC01672F71917723E1F7329704C07C9123
:101C20006D9370836291AE17BF07C8F30895052EB8
:101C300097FB1EF400940E942E0E57FD07D00E94C1
:101C4000490E07FC03D04EF40C942E0E509540958F
:101C5000309521953F4F4F4F5F4F08959095809558
:101C6000709561957F4F8F4F9F4F08950E946B0E27
:101C7000A59F900DB49F900DA49F800D911D1124E0
:101C80000895B7FF0C94360E0E94360E821B930BFC
:101C90000895A1E21A2EAA1BBB1BFD010DC0AA1FAD
:101CA000BB1FEE1FFF1FA217B307E407F50720F0C5
:101CB000A21BB30BE40BF50B661F771F881F991F40
:101CC0001A9469F760957095809590959B01AC0189
:101CD000BD01CF010895A29FB001B39FC001A39F92
:101CE000700D811D1124911DB29F700D811D112455
:101CF000911D0895EE0FFF1F881F8BBF0790F6916F
:101D0000E02D1994CF93DF938230910510F482E097
:101D100090E0E091EA05F091EB0520E030E0C0E0D2
:101D2000D0E0309711F14081518148175907C0F038
:101D30004817590761F482819381209719F09B839A
:101D40008A832BC09093EB058093EA0526C021156A
:101D5000310519F04217530718F49A01BE01DF014B
:101D6000EF010280F381E02DDCCF2115310509F16F
:101D7000281B390B2430310590F412968D919C91DB
:101D800013976115710521F0FB019383828304C0D1
:101D90009093EB058093EA05FD01329644C0FD0166
:101DA000E20FF31F81939193225031092D933C93BD
:101DB0003AC02091E8053091E905232B41F42091A8
:101DC0000602309107023093E9052093E80520913F
:101DD0000402309105022115310541F42DB73EB7BB
:101DE0004091080250910902241B350BE091E8054F
:101DF000F091E905E217F307A0F42E1B3F0B28171B
:101E0000390778F0AC014E5F5F4F2417350748F073
:101E10004E0F5F1F5093E9054093E805819391931E
:101E200002C0E0E0F0E0CF01DF91CF9108950F9381
:101E30001F93CF93DF93009709F48CC0FC01329776
:101E4000138212820091EA051091EB05011511052C
:101E500081F420813181820F931F2091E805309118
:101E6000E9052817390779F5F093E905E093E805C6
:101E700071C0D80140E050E0AE17BF0750F4129691
:101E80002D913C911397AD012115310509F1D9012F
:101E9000F3CF9D01DA013383228360817181860F44
:101EA000971F8217930769F4EC0128813981260F67
:101EB000371F2E5F3F4F318320838A819B8193831D
:101EC0008283452B29F4F093EB05E093EA0542C0A9
:101ED0001396FC93EE931297ED01499159919E014F
:101EE000240F351FE217F30771F480819181840F6D
:101EF000951F029611969C938E93828193811396DF
:101F00009C938E931297E0E0F0E0D80112968D91A9
:101F10009C911397009719F0F8018C01F6CF8D91E1
:101F20009C9198012E5F3F4F820F931F2091E805EF
:101F30003091E9052817390769F4309729F4109290
:101F4000EB051092EA0502C0138212821093E90594
:101F50000093E805DF91CF911F910F9108956F9243
:101F60007F928F929F92AF92BF92CF92DF92EF9229
:101F7000FF920F931F93CF93DF93EC01009789F4A7
:101F8000CB01DF91CF911F910F91FF90EF90DF90E8
:101F9000CF90BF90AF909F908F907F906F900C9458
:101FA000820EFC01E60FF71F9C0122503109E21757
:101FB000F30708F4ACC0D9010D911C9111970617D5
:101FC0001707B0F00530110508F49FC0C801049749
:101FD0008617970708F499C002501109061B170BC2
:101FE000019311936D937C93CF010E94170F8DC0C5
:101FF0005B01A01AB10A4C01800E911EA091EA0566
:10200000B091EB0540E050E0E12CF12C109709F481
:102010004AC0A815B905D1F56D907C901197630160
:1020200082E0C80ED11CCA14DB0480F1A3014A1956
:102030005B096A0182E0C80ED11C1296BC9012970F
:102040001396AC91B5E0CB16D10440F0B282A383D5
:1020500051834083D9016D937C930AC00E5F1F4F5B
:10206000C301800F911FF90191838083EB2DFA2F1B
:10207000E114F10431F0D7011396FC93EE9312971B
:1020800044C0F093EB05E093EA053FC08D919C912D
:1020900011974817590708F4AC017D0112960D906D
:1020A000BC91A02DB3CF8091E8059091E9058815EA
:1020B0009905E1F446175707C8F4809104029091FE
:1020C0000502009741F48DB79EB7409108025091E8
:1020D0000902841B950BE817F907C8F4F093E9058A
:1020E000E093E805F901718360830FC0CB010E9482
:1020F000820E7C01009759F0A801BE010E949D103C
:10210000CE010E94170FC70104C0CE0102C080E0BB
:1021100090E0DF91CF911F910F91FF90EF90DF90B2
:10212000CF90BF90AF909F908F907F906F900895C9
:1021300081E090E0F8940C94AD10FB01DC0102C04A
:1021400001900D9241505040D8F70895FB01DC01F9
:0E21500001900D920020E1F70895F894FFCF62
:10215E00010000000000EC058000000000003402C9
:10216E007A01C2017B02F301D101E5014572726F62
:10217E00723A200054657374696E67206C617365E2
:10218E007273004C617365723A20005072696E74FE
:10219E00696E67206465746563746F722073746111
:1021AE00746573004465746563746F723A20002E13
:1021BE0000303030004920616D2061200053746181
:1021CE00727465642073656E64696E6720636F6EEA
:1021DE006E656374696F6E20746F20736C617665C3
:1021EE0000436F6E6E656374696F6E2077697468F5
:1021FE0020736C617665210053746172746564207E
:10220E0077616974696E6720636F6E6E656374695A
:10221E006F6E2066726F6D20686F737400436F6E01
:10222E006E656374696F6E207769746820686F736A
:10223E00742100313A2053696E676C65206C616EB3
:10224E006500323A20446973636F00333A20446567
:10225E006275670053656C6563742067616D6520F8
:10226E006D6F64653A20000D0A004E6F206D6F642D
:10227E00652073656C65637465640056616C696492
:10228E002067616D65206D6F64652073656C656395
:10229E00746564004572726F7220636F727265634B
:1022AE0074696E67206F6E206465746563746F72F7
:1022BE0073004465746563746F7220002069732027
:1022CE006E6F7420776F726B696E6700466F756EF6
:1022DE0064200020757361626C65206465746563AB
:1022EE00746F7273206F66200047616D6520636F97
:1022FE00756C64206E6F742073746172742C206E12
:10230E006F7420656E6F756768206465746563749D
:10231E006F7273005374617274696E672073696EA5
:10232E00676C65206C616E652067616D652120505C
:10233E007265737320616E79206B657920746F20DE
:10234E0073746172743A200047657420726561641B
:10235E00792100476F210047616D6520696E206508
:10236E0072726F72206D6F64652000446973636FC3
:10237E00206D6F6465210046726F6D20686F7374F7
:04238E003A200000F1
:00000001FF
